:020000041000EA
:1000000000B5324B212058609868022188439860DF
:10001000D860186158612E4B002199600221596106
:100020000121F02299502B49196001219960352056
:1000300000F044F80222904214D00621196600F024
:1000400034F8196E01211966002018661A6600F04E
:100050002CF8196E196E196E052000F02FF8012189
:100060000842F9D1002199601B49196000215960AB
:100070001A491B48016001219960EB211966A021F2
:10008000196600F012F800219960164914480160C1
:100090000121996001BC002800D000471248134993
:1000A000086003C880F30888084703B5996A0420EC
:1000B0000142FBD001200142F8D103BD02B5186610
:1000C0001866FFF7F2FF186E186E02BD00000240BE
:1000D000000000180000070000035F00212200005C
:1000E000F4000018222000A00001001008ED00E03C
:1000F00000000000000000000000000074B24E7A12
:1001000000200420F7010010C3010010C5010010F9
:10011000C1010010C1010010C1010010C101001097
:10012000C1010010C1010010C1010010C701001081
:10013000C1010010C1010010C9010010CB01001065
:10014000CD010010CD010010CD010010CD01001037
:10015000CD010010CD010010CD010010CD01001027
:10016000CD010010CD010010CD010010CD01001017
:10017000CD010010CD010010CD010010CD01001007
:10018000CD010010CD010010CD010010CD010010F7
:10019000CD010010CD010010CD010010CD010010E7
:1001A000CD010010CD010010CD010010CD010010D7
:1001B000CD010010CD010010CD010010CD010010C7
:1001C00000BE00BE00BE00BE00BE00BEEFF3058054
:1001D000103800BEF2EB8871FCA5071020A60710AE
:1001E0003402001090A31AE700201F49086006C8D7
:1001F00081F3088810471D48006800282FD10DA4FE
:100200000ECC002902D000F012F8F9E71849194A7B
:10021000002000E001C19142FCD1174988471749ED
:1002200088471749884700BEFDE701C901C29A42C5
:10023000FBD3704720A60710C0000020183900200B
:1002400078DE0710000004200000042078DE07108C
:10025000001004200010042000000000704709482E
:1002600007F0A8FA0047000008ED00E0000000D009
:10027000183900208CCF00209D5E0010E905001089
:10028000C55F00105756000006005250ABB36053D4
:10029000D825031006005250861C0302E8250310DF
:1002A000060052505422A29D002603100500525011
:1002B000DE65F46878DE0710F8B5C04606480749E1
:1002C000091A8B10C90FC91810B5491003D0044B77
:1002D000002B00D0984710BD183900201839002095
:1002E00000000000054B10B5002B03D00449054861
:1002F00000E000BFFFF7E2FF10BDC04600000000B5
:1003000020A00020C822031070B5040004F010FFE4
:10031000002925D0FA220023920007F0E3FA324A9E
:10032000136883421BD0314D013313602B78062BA9
:100330000AD82F4A9B00D3589F462E4B200019788D
:100340002D4A002300F008FD0EF0CEFB00280CD152
:100350002B78012B0ED0022B17D0002B10D070BDA4
:10036000FA21890007F080FAD9E70EF0C5FB2B7857
:10037000012BF0D108222149002001F05FFBEEE7BC
:1003800014211D4801F018FBE9E713221C49002045
:1003900001F054FBE3E7174B20001978174A0123BB
:1003A00000F0DAFCD0E7134B20001978144A02233E
:1003B00000F0D2FCC8E70F4B20001978114A042343
:1003C00000F0CAFCC0E70B4B200019780E4A052349
:1003D00000F0C2FCB8E7074B200019780B4A06234F
:1003E00000F0BAFCB0E7C046B0C5002062CF0020E4
:1003F000C822031064CF0020703100209831002003
:100400008431002068310020203100202C31002070
:10041000C37A10B504005A2B05D001F093F92000DF
:10042000FFF772FF10BD01F087F9F8E730B5244CF3
:1004300085B02378042B37D0224B1B78042B2CD08B
:10044000052B22D0032B06D1132101201E4A11F0C7
:1004500099FE05B030BD2378053B012B27D96A46AC
:1004600011001A4B31CB31C11B6801200B601023E6
:100470001749137010F040F8012010F049F80120DE
:100480000021404210F0B6FBF9E72378053B012B31
:10049000DFD910481AF0D8FDDBE71622132101201E
:1004A0000D4B11F02BFFD4E72CF092FBC4E700209A
:1004B00010F02EF801200021404210F09BFBF9E7DC
:1004C00062CF002064CF0020DD040010E478031028
:1004D000004C0400090300101104001010B582B094
:1004E000019004F025FE002926D0FA220023920074
:1004F00007F0F8F9324A136883421BD0314C0133BC
:1005000013602378062B0AD82F4A9B00D3589F46A6
:100510002E4B2F4A197801A8002300F01DFC0EF085
:10052000E3FA00280DD12378012B0FD0022B18D02D
:10053000002B11D002B010BDFA21890007F094F908
:10054000D8E70EF0D9FA2378012BEFD10822214900
:10055000002001F073FAEDE714211D4801F02CFA98
:10056000E8E713221C49002001F068FAE2E7174B84
:10057000184A197801A8012300F0EEFBCFE7134BCE
:10058000154A197801A8022300F0E6FBC7E70F4BD4
:10059000124A197801A8042300F0DEFBBFE70B4BD9
:1005A0000F4A197801A8052300F0D6FBB7E7074BDF
:1005B0000C4A197801A8062300F0CEFBAFE7C0462D
:1005C000B0C5002062CF0020E422031064CF0020D9
:1005D00070310020983100208431002068310020E3
:1005E000203100202C310020F0B589B0504803ABF9
:1005F00002AA01A903F048F9002803D14D484C494B
:1006000005F0E4FC039A0299019803F001F908F05F
:1006100003F801F085F8002019F078FF062846D885
:10062000454F3870012019F071FF020006283CD8B0
:10063000424E39784248327007F0E2FF6B46092497
:10064000DD1C200019F062FF285501341B2CF8D165
:1006500003A800F01FFA122003F0FCFAD024802334
:100660002406DB02A362374804F05AFC63685B038C
:100670001FD40A2004F054FC3378334C042B3CD0B4
:1006800008F0DCFB200008F02DFC3378052B15D09A
:10069000062B2AD0042B1BD000200EF04FFA01208D
:1006A000002140420EF0B8FAF9E70022C0E700202E
:1006B000B6E70723337012F091F9DAE723482449AB
:1006C0002BF01AFD23482BF0B5FC002009B0F0BD3B
:1006D0003B78042B17D0052B25D0032B1AD10521ED
:1006E00001201D4A11F04EFDFEE7194917482CF074
:1006F00099FF1A482CF00CFFE7E722000020184968
:100700002CF096FBBCE7082205210120154B11F0C7
:10071000F5FDFEE700200FF0FBFE01200021404226
:1007200010F068FAF9E710481AF08EFCCDE7C046E1
:1007300080A903000023031064CF002062CF0020B3
:1007400034230310B80B00002D04001039170010DB
:100750004517001020310020DD0400102C3100204E
:1007600068310020110400100903001001230370F8
:10077000054B1B78022B03D8002B03D1034870478D
:10078000072BFCD10248FAE762CF00202C7C031033
:10079000447C031000B583B018000822694607F0B6
:1007A0006FFD082003B000BD7047C04601220270F3
:1007B000054A03001278002A03D1012203481A7067
:1007C000704700220020FAE764CF0020647C031009
:1007D000937B70B504000D00002B02D0D37B002B5F
:1007E00004D12900200002F077F870BD901CFFF7BB
:1007F0008BFDF6E770B5040016000022174B82B09F
:100800000D001A7016480A00210007F0F9FE33782F
:10081000022B02D1B37B002B1BD001230022290025
:10082000200002F087F8012301222900200002F0B5
:1008300081F801230022290000932000002302F008
:10084000F5F82900200002F047F800F075FF02B02B
:1008500070BD2900200002F03FF8F8E764CF0020C7
:100860005C23031010B5044B0A000100180007F0C8
:10087000C7FE00F067FF10BD74230310F0B516002B
:1008800002221F003C4B83B004000D001A7000F0E0
:1008900053FF6B4601A99A1D20000FF0FDFD2A00B1
:1008A0002100364807F0ACFE6B463548DA88998857
:1008B00007F0A6FE6B46334A9B88934242D0324AE9
:1008C00093421CD0314A93424AD0314A93422FD1AD
:1008D0006B46DB885E2B1ED0EE2B1CD0390030001F
:1008E00019F030FE0100021E41D12A4B29002000E0
:1008F0001A7011F035FB002816D003B0F0BD6B461E
:100900009A22DB889200934228D0234A934202D055
:10091000224A9342E2D102221E4B290020001A7083
:1009200011F01EFB0028E8D11D4807F077FDE4E731
:100930001C4A9342D2D16A461B4BD2889A42CDD1EF
:100940000222E9E76B46DA88184BD3189BB2012BD9
:1009500002D9174B9A42C1D10122C6E70622C4E749
:100960006A46144BD2889A42B8D10522BDE7124894
:1009700007F046FEC1E7C04664CF00209023031075
:10098000C42303106D0400004C050000C82D0000B6
:100990000D0F000063CF0020CC090000C40500004B
:1009A0000C2403104F1F000002100000E83D00005F
:1009B00016C2000013300000E023031010B5054BF1
:1009C0000A000100180007F01BFE00F0BBFE19F042
:1009D000C1FD10BD38240310F0B54F464646D6463B
:1009E000C0B584B004000D00904600AF002B19D0B4
:1009F000264A1678022E2FD043D8002E23D06946DF
:100A0000DA1DD208D2008A1AE9469546EA461A004B
:100A10004146684607F034FC534668461E70FFF7AF
:100A200073FCCD462900200011F09AFA002806D068
:100A3000BD4604B0E0BCBA46B146A846F0BD144875
:100A400007F0ECFCF4E7404619003A1D19F0A6FD4A
:100A5000381DFFF759FCE5E743460422591CB81D31
:100A600007F00EFC4346991D0A230422F81807F0EC
:100A700007FC43465B79381D7B713E71FFF744FCF0
:100A8000D0E7721F012ACDD8B9E7C04663CF002056
:100A90000C2403100121002370B502780400914258
:100AA0005B41094D5B421A4043782A70A81CA11C87
:100AB00008226B7007F0E4FB2800210008220A31AD
:100AC0000A3007F0DDFB70BDC86D0020F0B5DE46D2
:100AD000454657464E46E0B5040085B010000D006F
:100AE00007F0DCFA4C4907F0BEFA8046012D00D130
:100AF00087E008239B4602339C46A4446346039345
:100B00000822A35EA3449A460A22A35E99464B4656
:100B100050465B434043C01807F07AF907F0C4F928
:100B200000223E4B06000F0007F05AF900285ED164
:100B3000FC230022300039009B0507F0F4F80090F8
:100B40000191404607F006FB009A019B04000D004E
:100B500007F046F9002851D10098019922002B0096
:100B600007F0BDF80400FE200D008005414607F0A7
:100B700074FA07F0EFFA02000B002000290007F0DA
:100B8000B8F807F089F9041C504607F041F9320023
:100B90003B0007F0AEF807F07FF9051C484607F068
:100BA00037F932003B0007F0A4F807F075F9211C73
:100BB000061C281C07F06BFA194907F068FA07F0C1
:100BC00095FA211C05B2301C07F061FA144907F0B0
:100BD0005EFA07F08BFA00B25B461D80039B18801B
:100BE00005B0F0BCBB46B246A946A046F0BD002306
:100BF0000C4C002600930194084FA2E7002500202A
:100C0000EAE7231D9B46A31D03930422A35E9A4695
:100C10000622A35E99467AE70000C842C0FFDF4083
:100C200000FEFF46C0FFEF3FF0B545465746DE46A3
:100C30004E46E0B5444B05005F78984683B0002FE0
:100C400031D09E1C0F239A468023DB01994608234E
:100C500000249B460EE0002B09D1327AD10701D542
:100C6000AB80EB80920702D500232B816B8101348E
:100C7000BC4218DA335D012B1CD0022BEBD10923C7
:100C8000F356717A002B58DB4346197B1B7B5BB212
:100C9000002BECDA7F2228000A4001340221FFF702
:100CA00015FFBC42E6DB03B0F0BCBB46B246A9462A
:100CB000A046F0BD5246514628782B88024001924A
:100CC0008B430422A95E2B80494525DB08210B4379
:100CD0002B800622A95E494528DB01210B432B808E
:100CE0005B46034059424B41184A19499446019AC0
:100CF0005B420B4092086344D2031343AB80012351
:100D0000124A03409446019A013B0B405208634447
:100D1000D2031343EB80AAE70E4A9142D9DA0421A9
:100D20000B430622A95E2B804945D6DA094A914237
:100D3000D6DA02210B432B80D2E77F2228000A401B
:100D40000121FFF7C3FE9FE7C86D0020FF7F000071
:100D50000180FFFF01C0FFFFF0B557464E464546F4
:100D6000DE46E0B587B0060088461F0000920429E1
:100D700000D1AAE037D8022946D0032935D103ACE7
:100D800001000222200007F07BFA012231680B0CDF
:100D90001340480C10405B42DB0BC603301ADB03E8
:100DA0000343880C1040A380C303181ACB0C1340D4
:100DB0005B42DB0BDB030343E380002305930B0E55
:100DC000490E13400A405B425242A370E270B84B96
:100DD00001261B78002B13D1062F00D9D3E2B54B87
:100DE000BF00DB599F4605290ED003AC0C22310011
:100DF000200007F045FA0026AD4B1B78002BEBD006
:100E00002000FFF711FFE7E7327803ACB35CB118BD
:100E1000803B1B02A3804B787F3B1B025B42E3803D
:100E20008B78803B1B022381CB787F3B1B025B428C
:100E30006381052A00D1ADE200D9F7E2012A00D191
:100E40005BE3022AD7D17378B2799D02A946802547
:100E5000ED01AA464D4651460D40C0219B468901F1
:100E6000DB010B4001211D43402371561340C90B88
:100E70002B43C9030B4351008C46202165460D408E
:100E8000802149002B430D008021100200B2054053
:100E9000890008402B43034380205D461040F2390F
:100EA0000343FF3984480D40415D52100B4310212C
:100EB0000A4013430122F1790A409202134323802E
:100EC000337AA370737AE37081E701210D00C06863
:100ED0003369820F95436A00450FAC4699460D0071
:100EE00063469D43EB000D001A43030F9D43C3432C
:100EF0002A430D00DB0F9B001A43C30E9D432B01B9
:100F00000D001A43030E9D436B010D001A43430E5F
:100F10009D43EB010D00800E1A4385434B46A8010B
:100F20000D000243D80E854368020D000243980E5F
:100F3000854328020D000243180F8543E8030D0086
:100F40000243580F854368030243980F8143090306
:100F50000A43D943C90F89030A4303AC2280F279BB
:100F6000412A00D10BE2F27F803A1202A280326A5B
:100F7000120E7F3A12025242E280F27D803A120251
:100F80002281F27E7F3A1202524212B26281012223
:100F90004B461000190E5B0E88439A434142524261
:100FA0000026A170E27027E74346002B00D030E214
:100FB000002E00D12DE23623009AD35C012B00D104
:100FC0000EE3FF2B00D1D9E2002B00D0D1E01500B9
:100FD0000122100023881840E87158081040287238
:100FE000980810406872D8081040A8720920590B60
:100FF00011402970190B1140697059091140A970ED
:1010000019091140E970990A11402971990B114091
:10101000DE0B6971AE71205628750B20205668755D
:10102000052020568038287707202056803868779A
:10103000A078C009A877580A1040E877002900D1A5
:101040005DE3002E00D15AE335216A54802252001C
:10105000134200D134E338230098FF3AC254C289C6
:10106000164B11000A3989B28B429B4114499205F3
:101070000B403033920D9A18C281C28A9205920DAC
:101080009A18C282028A9205920D9A180282028BE5
:101090009205920D9A180283428A9205920D9A182F
:1010A0004282428B9205920D9B18438361E0C046B9
:1010B000C86D0020F47803101C790310DE030000D3
:1010C000A0FF0000082510272288A8469304D0120C
:1010D00028409B0F034310B2C01238400343402006
:1010E000911049B28446084003437F20009D81430C
:1010F0000B43EB710323E356A0789B11994602231F
:101100004D462B40C5092B434546511049B20D4071
:101110002B43D510A9460425A8469A464D4643467A
:101120001D402B0055461D432B0020250D402B4311
:10113000654629400B439111009D0F403B43E678E3
:101140002B720F23B7491340CB5C07222B7005236A
:10115000E356803B6B707F23A2569A1AAA7009222D
:10116000A256803AEA700B22A256A8719B1A2B71E4
:101170006E7107B0F0BCBB46B246A946A046F0BDB2
:1011800010237F202288402611010B40A1780427DC
:1011900081430B437E38111101400B43202102256E
:1011A00084469000084003435001304003435009F7
:1011B0003840034350092840034390088146A8461D
:1011C00008204D4605402B43DB438A4600995512C3
:1011D0000B7061460D4003219313DB012B43454601
:1011E0006156C9170D402B43654691100D40910A79
:1011F0000F402B433B43D7093E40334316B2F6170B
:10120000304003435046D20802401343DB43009969
:1012100007224B700523E356803B8B707F23A25639
:101220009A1ACA700922A256803A0A710B22A25653
:101230009B1A4B719DE701222188009D0B131340DF
:10124000881310405B0003434813104080000343A1
:1012500008B2C0131040C000034308121040000140
:1012600003434812104040010343A078C0098001A5
:101270000343E078C009C00103432B700B111340F6
:10128000481110405B000343881110408000034365
:10129000C8111040C0000343881202401F201201F1
:1012A00013436A78824313436B700F235D4A0B40EC
:1012B000D35C0722AB700523E356803BEB707F23A2
:1012C000A2569A1A2A710922A256803A6A710B22F2
:1012D000A2569B1AAB714CE7802680272288B60065
:1012E000530133407F00D6003E4033438026100137
:1012F000F600064033438026360130408026034303
:1013000076019000304003430620D612304003435C
:101310005004C00F0343082016B236133040022693
:1013200003431020A6579108F610304003261843B7
:101330002023A657B6103340034340200840034300
:101340008020014000980B43037099B20F23090AD3
:10135000417034491340CB5C072283700523E35668
:10136000803BC3707F23A2569A1A02710922A256AB
:10137000803A42710B22A2569B1A8371F9E6002231
:101380000492228102E600980C222100023006F02D
:1013900077FFEEE67178C025CB021BB29C46AD010B
:1013A0000B032B4080259A466346ED011D402B0020
:1013B00055461D432B006546ED0BED032B431025D1
:1013C000B0788900420015402B432025C0002840FA
:1013D00003438020400001400B4301217156001857
:1013E00001400B43402111400B4380210A4013432D
:1013F00032790D481209111C082A00D9BCE0C9B283
:10140000425C13432380B37AA370737A0026E3709F
:10141000F2E480212388C900DA000A4013432380C4
:10142000C9E5C046107903101C790310062A00D0C4
:10143000E1E4B278F37850018146F0780193844674
:10144000654653009A462D022DB2AC4610235546F0
:1014500049462B4020250D4040212B430D00494695
:101460000D402B4380214D460D4080214901894686
:101470002B430D0080218001054089012B430D0085
:1014800061460D40032171562B438A468021554603
:10149000C9010D402B4361464D460D408021490056
:1014A0002B430D0080210540890008402B4311117A
:1014B0000D000343911001208946054008212B436C
:1014C0004D460D40511189462B4302214D468C4615
:1014D0000D40042152B252110A402B43134332797A
:1014E00002409202134323806346019A10401A403F
:1014F00040425342A070E37069E47379B2799D026F
:10150000A9468025ED01AA464D4651460D40C02111
:101510009B468901DB010B401D4340232021767946
:10152000134076B2F60BF6032B43334356000E40BE
:1015300033438026100200B27600064033438026F3
:10154000B60030400343802059461040F23E03432A
:10155000FF3E71483140415C50100B431021014067
:101560000B432380042313405B42A37008231340E2
:101570005B420026E3703FE4082140E715000122AA
:1015800010002388590B11402970190B1140697004
:1015900059091140A970190911401840E970E87102
:1015A000990A58081140104029712872990BDE0BD6
:1015B0009808DB08114010401A4005236971AE718C
:1015C0006872AA72E3562B750723E3566B750029E0
:1015D0006BD0002E69D0352301220099CA54C8E58A
:1015E00015002021212622888946500B1840685476
:1015F000100B1840A8552220D60B2E54900B1840E3
:101600008046232741462800E9552825970A1F4090
:10161000475557091F40043D475517091F400135DD
:1016200047551D002B271540C5552C2557081F4031
:10163000475597081F4001354755D7081F400135CA
:101640004755170A520A1F4013402922043D4755A7
:101650008354A3780A328354342799459B41E27816
:101660005B42C255914589410D3FC35526234942EE
:10167000C1540422A35E2F229B12203383540622DE
:10168000A35E3022DB1220338354002E02D0434667
:10169000002BA0D135230099CA5C002A00D168E54F
:1016A0000022CA541D4BCB8663E535230099CA5CE2
:1016B000002A00D15DE50022CA54CB33CB8658E521
:1016C00038230098C35C002B00D152E582218900A9
:1016D0008C46C38974316344C381C38A02876344DF
:1016E000C382038A63440382038B63448C4603836F
:1016F000438A63444382438B6344438339E5352201
:101700000098815C002900D1A0E4002181540222CC
:10171000FF32C2869AE4C0461C790310FF01000024
:1017200010B507F0A3FF002800D110BD014806F056
:1017300067FFFAE77024031010B50121002007F0BD
:1017400085FF10BD10B50021002007F07FFF10BD00
:10175000044B00201B78072B02D8034A9B009858A3
:101760007047C04662CF002048790310054B1B78B4
:10177000012B04D00020022B00D1034870470348FE
:10178000FCE7C04662CF00201C7A0310D87A031011
:10179000044B00201B78072B02D8034A9B00985863
:1017A0007047C04662CF00202879031070B5484BBF
:1017B00084B01B78022B00D179E02FD8002B00D108
:1017C0006DE06A46434B70CB70C21B681360424A9F
:1017D00000282ED0052832D0032800D973E06B46AC
:1017E0008000C658300030F019FBE023034266D178
:1017F0001F331C000440034267D0C025631C5B00FC
:10180000AD001D430023354AF15C013311800232E3
:10181000A342F9D33248058004B070BD072BD7D15D
:101820006A46304B70CB70C21B6813602E4A00288A
:10183000D0D1C1252A481388AD004380EBE72B495E
:101840002B4A0C7826482309D35C43800F231C4085
:10185000145D84804C7825091C40555D145DC5805D
:1018600004818C7825091C40555D145D4581848177
:10187000CC7825091C40555D145DC58104820C7926
:1018800025091C40555D145D458284824979194DB6
:101890000C090B40145DD35CC4820383BBE76A462A
:1018A000154B70CB70C21B681360144A90E76A46F0
:1018B000134B70CB70C21B681360124A88E7D025A7
:1018C0001F24AD009EE70020A6E70F4D0448A2E7C5
:1018D00062CF0020707B0310A87B03109E4E002077
:1018E0009C4E0020C8790310F4790310E0320020E8
:1018F000842403101A030000F07B0310287C0310DB
:10190000A07A0310D47A0310020300007047C04687
:101910007047C0460120704710B5064B18788842C2
:1019200001D0012010BD01002023034A00200DF04A
:101930002FFEF6E771CF002010CF0020F8B5474604
:10194000CE4680B50F0009798046CE00761A19364A
:10195000B6B2964229D83C783C1900291DD0144BC8
:101960000025994603E02378E4188D4215D2637868
:10197000052BF8D1210040460DF0C8FD002814D0F9
:10198000A378DA09012A0DD04A461370237801356D
:101990003979EDB2E4188D42E9D33000C0BCB946C4
:1019A000B046F8BD034A1370F0E70026F5E7C046DD
:1019B00071CF002070CF0020F8B506000D000DF0AB
:1019C0008BF8041E02D100242000F8BD0DF08CF825
:1019D0000028F8D10A4F39780029F4D00DF0FEFD27
:1019E0000028F0D139780DF0ABFD39782B003200AA
:1019F00000200DF0CDFD397800200DF0B5FDE3E7B6
:101A000070CF0020137870B51400A12B02D1537849
:101A1000012B03D022000DF0A5FF70BD9578D3787F
:101A2000C0221B0292002B439342F3D108232100D2
:101A3000014A0DF0F7FDF0E75C7C031070B504007F
:101A400000200D0016000DF0D7FE002800D170BD5B
:101A500033002A00210000200DF0EAFEF7E7C0461F
:101A60009A2210B500210248920006F003FC10BD36
:101A700044550020F0B545465746DE464E46E0B593
:101A800098460F00150083B004294ED81379012B16
:101A90004BD992795D2A43D0472A4ED0697958298B
:101AA00043D1422A41D104202F4A791E93469A22DB
:101AB00001914A435946895C002936D15A449246DD
:101AC0005146AA7888708A744246002A3ED0002285
:101AD0002C000026914606E02278B618A4189945F5
:101AE00034DA464532DA6278052AF5D12100380029
:101AF0000EF034FE002818D0637921791B020B43C5
:101B0000A2785B055B0DD1091CD151460A750B8388
:101B100001239C462378E144F618E4182B79DEE78C
:101B2000EA79812A1CD0012A1CD0002003B0F0BC25
:101B3000BB46B246A946A046F0BDEA79D02AF4D108
:101B40000120B1E75146CA74CB82E1E79A23019A9A
:101B5000594653435A46D25C01200132CA54E5E744
:101B60000220A1E703209FE744550020F0B54E4630
:101B7000DE4657464546E0B51400060083B0002A0D
:101B800000D03EE1CA099146421E90469A22404644
:101B90004243A84FBA18D07C884200D166E3147D36
:101BA0009825641A621E94416442E4B2A2466543D9
:101BB00041469A224A4349465519012911D09E4A65
:101BC000002A06D05A35210030009BB27A1900E075
:101BD00000BF012003B0F0BCBB46B246A946A046F8
:101BE000F0BD2B001A339B46514698234B439B185C
:101BF000FB1800939B78281D3818BB44032B00D199
:101C000001E1022B00D11BE1012B00D140E2042BAA
:101C100000D0FDE05B465B78142B00D0F8E00C228E
:101C2000002106F027FB5B464A465B881A4204D037
:101C30000121009882880A4382809A070BD5514679
:101C4000982240464A439A21414302205218BA182A
:101C50009188014391805A070BD5514698224046FE
:101C60004A439A21414304205218BA1891880143EB
:101C700091801A070BD55146982240464A439A2133
:101C8000414308205218BA18918801439180DA061E
:101C90000BD55146982240464A439A214143102091
:101CA0005218BA189188014391809A060BD5514673
:101CB000982240464A439A21414320205218BA189C
:101CC0009188014391805A060BD55146982240468F
:101CD0004A439A21414340205218BA18918801433F
:101CE00091801B060BD552469823414653439A22B6
:101CF0004A4380219B18FB189A880A439A805B46C6
:101D00001B79202B0CD952469823414653439A22E3
:101D10004A439B188022FB18998852010A439A80F3
:101D20005B465B79202B0CD952469823414653439E
:101D30009A224A439B188022FB18998892010A43F1
:101D40009A805B469B79202B0CD9524698234146BA
:101D500053439A224A439B188022FB189988D20148
:101D60000A439A805B46DB79202B0BD95246982395
:101D7000414653439A224A439B18FB1899882F4A9D
:101D80000A439A805B461B7A202B0CD95246982333
:101D9000414653439A224A439B188022FB18998854
:101DA00092000A439A805B465B7A202B0CD95246FC
:101DB0009823414653439A224A439B188022FB189A
:101DC000998852000A439A805B465246997A982332
:101DD000404653439A2242439B185A46FB18997136
:101DE000D27ADA715A4692891A815A46D2895A8130
:101DF0005A46128A9A815A46528ADA8101225A74C4
:101E000006E00020E6E65B465B78142B00D133E267
:101E10000235982321007A193000FEF7D9FC52468A
:101E20009823414653439A224A439B180022FB18A9
:101E30005A74CEE644550020000000000080FFFFE9
:101E40005B465A781B781B0700D515E1012399469C
:101E50001342DDD05B465B79132BD9D10C220021D4
:101E600006F008FA5A465B460621515EDB8800916F
:101E7000494619420DD05246973151439A20424665
:101E80005043012294466246091879188888104305
:101E9000888099070DD5524698219A205143424691
:101EA00050430222944662460918791888881043E4
:101EB000888059070DD5524698219A2051434246B1
:101EC00050430422944662460918791888881043C2
:101ED000888019070DD5524698219A2051434246D1
:101EE000504308229446624609187918888810439E
:101EF0008880D9060DD5524698219A2051434246F2
:101F00005043102294466246091879188888104375
:101F1000888099060DD5524698219A205143424611
:101F20005043202294466246091879188888104345
:101F3000888059060DD5524698219A205143424631
:101F40005043402294466246091879188888104305
:101F5000888019060DD5524698219A205143424651
:101F600050438022944662460918791888881043A5
:101F700088808020400003420DD052469821514372
:101F80009A22894641464A43494694466144791813
:101F90008A88104388808020800003420DD05246FA
:101FA000982151439A22894641464A4349469446DC
:101FB000614479188A881043888080204001034258
:101FC0000DD05246982151439A22894641464A43B0
:101FD00049469446614479188A8810438880802055
:101FE000800103420DD05246982151439A228946DE
:101FF00041464A4349469446614479188A881043C9
:1020000088808021C9010B420AD0524698239A2029
:102010005343424650431B18FB189888014399804C
:10202000009B002B0BDA52469823414653439A22D9
:102030004A439B18FB1899888E4A0A439A805B464C
:102040005246197A9823404653439A2242439B189A
:102050005A46FB189971527ADA715A4652891A8196
:102060005A4692895A815A46D2899A815A46128A88
:10207000DA8101225A74CBE600990B7C002A00D049
:1020800011E2012B00D0C3E65B460A745A78DDE604
:102090005B461B78202B00D0BAE60C22002106F00C
:1020A000E9F85B465A469B880421515E8946DA0569
:1020B00004D5012000998A8802438A809A050DD5AB
:1020C00050469822414642439A20484302218C467A
:1020D00061461218BA189088084390805A050DD5A9
:1020E000514698229A204A434146484304218C464F
:1020F00061461218BA189088084390801A050DD5C9
:10210000514698229A204A434146484308218C462A
:1021100061461218BA189088084390805A070DD566
:10212000514698229A204A434146484310218C4602
:1021300061461218BA189088084390801A070DD586
:10214000514698229A204A434146484320218C46D2
:1021500061461218BA189088084390805A040DD529
:10216000514698229A204A434146484340218C4692
:1021700061461218BA189088084390804A46002A8F
:102180000BDA5146982240464A439A214143802027
:102190005218BA18918801439180DA040CD551463F
:1021A000982240464A439A21414352188021BA1846
:1021B00090884900014391809A040CD55146982299
:1021C00040464A439A21414352188021BA189088C8
:1021D000890001439180DA060CD551469822404689
:1021E0004A439A21414352188021BA1890884901E4
:1021F000014391809A060CD55146982240464A43A5
:102200009A21414352188021BA18908889010143CC
:1022100091805A060CD55146982240464A439A214D
:10222000414352188021BA189088C9010143918016
:102230001B060BD552469823414653439A224A43E4
:102240009B18FB1899880B4A0A439A805246982398
:10225000414653439A224A439B185A46D288FB1858
:1022600092109A715A4612899210F5E600220025C2
:1022700092469DE40080FFFF0C22002105F0FAFF4A
:102280005A465B460221515E5B88019149461942DC
:1022900004D00120009A91880143918099070DD5BF
:1022A000524698219A205143424650430222944676
:1022B00062460918791888881043888059070DD517
:1022C000524698219A205143424650430422944654
:1022D00062460918791888881043888019070DD537
:1022E000524698219A205143424650430822944630
:1022F000624609187918888810438880D9060DD558
:10230000524698219A205143424650431022944607
:1023100062460918791888881043888099060DD577
:10232000524698219A2051434246504320229446D7
:1023300062460918791888881043888059060DD597
:10234000524698219A205143424650434022944697
:1023500062460918791888881043888019060DD5B7
:10236000524698219A205143424650438022944637
:1023700062460918791888881043888080204000B8
:1023800003420DD05246982151439A228946414634
:102390004A4349469446614479188A8810438880A4
:1023A0008020800003420DD05246982151439A224A
:1023B000894641464A4349469446614479188A8889
:1023C000104388808020C00003420DD052469821DF
:1023D00051439A22894641464A43494694466144BC
:1023E00079188A88104388808020400103420DD0EC
:1023F0005246982151439A22894641464A434946CA
:102400009446614479188A8810438880802080012E
:1024100003420DD05246982151439A2289464146A3
:102420004A4349469446614479188A881043888013
:102430008021C9010B420AD0524698239A20534367
:10244000424650431B18FB18988801439980019B12
:10245000002B0BDA52469823414653439A224A43B3
:102460009B18FB189988144A0A439A805B46524687
:1024700019799823404653439A2242439B185A465F
:10248000FB1899715279DA715A46D2881A815A46E4
:1024900012895A815A4652899A815A469289DA811A
:1024A00001225A74B4E4002B00D0CFE44A465B46C4
:1024B0000A745A78CAE4C0460080FFFFF8B5CE46D9
:1024C0004746050080B504281CD89A26431E5E4363
:1024D000114BB14698469B5DC144002B0DD00024A2
:1024E0000E4F002F12D021002800FEF7BBF9434603
:1024F00001349B5DE4B2A342F3D89A2200214846FE
:1025000005F0B8FEC0BCB946B046F8BD0134E4B22F
:102510009C42E6D3F1E7C046445500206508001010
:10252000431EF0B5454698469A2342464E46DE463F
:1025300057465343E0B5CF4E0500F3189A7C87B059
:102540008A4208D1DA7C9246002A00D0BAE11B7D8B
:10255000002B00D0BBE1FF2399469A46C64F424666
:102560009A23982453434A465443DF19E41801231D
:1025700034192374A378022B1ED0012B51D0BF4BEA
:10258000002B05D0023751462800F219FEF732F928
:102590004A469823414653439A224A439B18F618C9
:1025A0002800B17C0FF01AF8012007B0F0BCBB4640
:1025B000B246A946A046F0BD00239B462374238B58
:1025C000032B15D84A469823414653439A224A433F
:1025D0009B18F3181C7D04E00120002140420EF0FE
:1025E00009FB210028000EF0E1F80028F4D1C6E72D
:1025F0002800217D0EF032F80028E3D03B005A334A
:10260000F318042218009E49039305F039FE5B4637
:10261000217D280001930093039A04330EF066F89D
:10262000D0E702A98C460D3363441900280005AA9F
:102630000DF032FF238B042B06D92800217D0EF0EC
:102640000DF8002800D0C8E04A469823414653437D
:102650009A224A439B18F3181C7D04E001200021B4
:1026600040420EF0C7FA210028000EF09FF8002823
:10267000F4D102ABDB89834A934200D1C0E0824AA5
:10268000934200D07BE74B46982442465C439A2312
:102690005343E4183419238B217D062B16D92800C7
:1026A0000DF0DCFF002811D03B005A339B46B344A9
:1026B00007227649584605F0E3FD0023217D5A465E
:1026C00001930093280007330EF010F84A46982330
:1026D000414653439A224A439B18F3181B7D9B465D
:1026E00004E00120002140420EF084FA59462800FF
:1026F0000EF05CF8041EF4D14A4698234146534339
:102700009A224A439B189B46B3445B46197D1B8B18
:10271000012B11D928000DF0A1FF00280CD03A00A0
:102720005B4B5A32B21813805B462800197D022396
:10273000019400940DF0DAFF4A4698234146534332
:102740009A224A439B18F3181B7D9B4604E0012004
:10275000002140420EF04EFA594628000EF026F8AD
:10276000041EF4D14A469823414653439A224A43D1
:102770009B189B46B3445B46197D1B8B052B16D9D2
:1027800028000DF06BFF002811D03B005A33F318DE
:10279000062218003F49039305F072FD5B462800AE
:1027A000197D039A0623019400940DF09FFF4A4679
:1027B0009823414653439A224A439B18F3181C7DA1
:1027C00004E00120002140420EF014FA210028000C
:1027D0000DF0ECFF0028F4D1D1E63B005A339B46C4
:1027E000B344052258462C4905F04AFD0023217DBB
:1027F0005A4601930093280005330DF077FF23E735
:1028000002AB9B89254A934207D0B0221201934222
:1028100003D0234A934200D0B1E64B469824424667
:102820005C439A235343E4183419238B217D042BF2
:1028300016D928000DF012FF002811D03B005A33A2
:102840009B46B34405221749584605F019FD00235D
:10285000217D5A4601930093280005330DF046FF71
:102860004A469823414653439A224A439B18F318F9
:102870001C7D1EE04455002068970000F5070010FD
:10288000787C03105E0400006F0E0000847C03104F
:10289000063000008C7C031098240310EA0200002C
:1028A000120B00007C7C03100120002140420EF03E
:1028B000A1F9210028000DF079FF0028F4D102AB26
:1028C000DB89DCE60023002799469A4647E6002389
:1028D0000027994643E6C046F0B598249A27C64695
:1028E000134A431E90464C435F4300B5E6194644E5
:1028F00082B0F17C05000DF0B1FE002801D100206E
:102900000CE000201A34E219F38AF17C4244019071
:10291000009028000DF0EAFE002803D002B080BC31
:10292000B846F0BD2800F17C0DF098FE0020F5E7D8
:1029300044550020F0B545465746DE464E4698467B
:10294000E0B598239A25040001384B434543344FA2
:102950005B19FB189B788DB0022B2AD0032B07D074
:1029600001200DB0F0BCBB46B246A946A046F0BD62
:1029700004AB9A4656462B4B1D8835809B78B37026
:10298000002A26D153469A7003239B460393982529
:102990009A234D434343EE18BE199946338B5B454A
:1029A00005D32000317D0DF059FE002814D1002000
:1029B000D7E71D4B04934023002A03D0531D402228
:1029C0001343DBB204AAD370042392469B460393BD
:1029D000DDE70532D2B2D5E75A354D447D1951466F
:1029E000039A280005F04CFC0023317D2A00019356
:1029F000009320005B460DF079FE4246002AB0D0DD
:102A00000028D4D0357D04E00120002140420EF0A2
:102A1000F1F8290020000DF0C9FE0028F4D19FE74D
:102A200044550020A024031000000840F0B5DE4605
:102A300057464E464546E0B58DB0984616AB1B78D6
:102A400004009B46484B0800994602919A2398211E
:102A5000671E7B434143C91849448B789446032B36
:102A600051D00CD8012B31D0022B27D13F4B04AED3
:102A700004930023B38043467271B3710AE0042BC0
:102A80001CD1C023DB000493434604AEB270F27045
:102A90003371737106239A4603939823029D5D4315
:102AA00002337B43EF184F4498463B8B534505D385
:102AB0002000397D0DF0D2FD002831D101200DB06C
:102AC000F0BCBB46B246A946A046F0BD04AE3200FB
:102AD000274B23CB23C21B786046137005F0E4FA22
:102AE000244905F0C0FA05F02FFB3072404605F08E
:102AF000DBFA204905F0B7FA05F026FB0D237072CA
:102B00009A460393C9E780231B010493002305938E
:102B1000434604AE33710823F2709A460393BCE730
:102B20005A3545444D443100039A280005F0A8FB6E
:102B30000023397D2A0001930093200053460DF0B5
:102B4000D5FD5B46002BB9D00028B7D03D7D04E011
:102B50000120002140420EF04DF8290020000DF028
:102B600025FE0028F4D1A9E74455002000010FC03C
:102B7000947C0310666626401300064A002010B5B8
:102B8000914200D010BD10221900034805F078FBD7
:102B90000120F7E7004C0400A031002070B50028A8
:102BA00004D0114805F0D0FE012070BD0BF044FFA9
:102BB0000C230E4C0E4DA3672900052001F090FA5E
:102BC000FF222900052001F091F9802200219200C6
:102BD000084805F04FFB03232364074B074AE364CF
:102BE0009023E250E0E7C046A031002000001150E1
:102BF000C5010020C46B0020008600207B0400007B
:102C000010B5002800D110BD0138C0B205F062FF38
:102C1000F9E7C04610B5002800D110BD0138C0B298
:102C200005F084FFF9E7C04610B500281BD0D0217D
:102C30000138C0B28300104A1B18DB009B1809063C
:102C40009C784A68DB784868E240D840012301213B
:102C50001840484013404B404000184340B2431EC8
:102C60009841C0B210BD054B186DC0239B001840A1
:102C7000431E9841C0B2F5E7C8AD002000001150D6
:102C800010B5002809D10C4B186D8005800F012864
:102C900002D002280CD1002010BD0138C0B2830040
:102CA0001B18064ADB009B18187B01235840F3E7EA
:102CB000034803F08BF9C04600001150C8AD002056
:102CC000E424031070B50D00002853D1002950D022
:102CD0003D23CF4CE35C8B4200D113E25D23E35CE8
:102CE000AB4200D1F2E17D23E35CAB4200D1D1E104
:102CF0009D23E35CAB4200D1AEE1BD23E35CAB427C
:102D000000D18BE1DD23E35CAB4200D161E1FD2327
:102D1000E35CAB4200D13EE11E23FF33E35CAB42F8
:102D200000D117E13E23FF33E35CAB4200D1EFE07B
:102D30005E23FF33E35CAB4200D1C7E07E23FF3369
:102D4000E35CAB4200D19FE09E23FF33E35CAB42E8
:102D500000D177E0BE23FF33E35CAB4251D0DE23EA
:102D6000FF33E35CAB422BD0FE23FF33E35CAB428B
:102D700005D070BD0138C0B205F0F8FEF9E7F023C8
:102D80005B00E25C002AF4D0FF2201215200A25C29
:102D9000501C81409F48920041659F4920008C460D
:102DA000002162445160E1540433E358E13019607A
:102DB000F4235B00E358FF3019602FF065FAD8E781
:102DC000E0235B00E25C002ACED0EF22012152001A
:102DD000A25C501C81408F48920041658E492000C2
:102DE0008C46002162445160E1540433E358C13001
:102DF0001960E4235B00E358FF3019602FF044FAB8
:102E0000B2E7D0235B00E25C002AA8D0DF220121D8
:102E10005200A25C501C81407E48920041657E4970
:102E200020008C46002162445160E1540433E35891
:102E3000A1301960D4235B00E358FF3019602FF0F4
:102E400023FA8CE7C0235B00E25C002A00D181E713
:102E5000CF2201215200A25C501C81406D4892009B
:102E600041656D4920008C46002162445160E15467
:102E70000433E35881301960C4235B00E358FF300A
:102E800019602FF001FA65E7B0235B00E25C002ACD
:102E900000D159E7BF2201215200A25C501C8140A1
:102EA0005C48920041655C4920008C4600216244E8
:102EB0005160E1540433E35861301960B4235B007E
:102EC000E358FF3019602FF0DFF93DE7A0235B00E6
:102ED000E25C002A00D131E7AF2201215200A25C5E
:102EE000501C81404B48920041654B4920008C4664
:102EF000002162445160E1540433E35841301960C9
:102F0000A4235B00E358FF3019602FF0BDF915E7EB
:102F100090235B00E25C002A00D109E79F22012197
:102F20005200A25C501C81403A48920041653A49E7
:102F300020008C46002162445160E1540433E35880
:102F40002130196094235B00E358FF3019602FF0A3
:102F50009BF9EDE680235B00E25C002A00D1E1E60C
:102F60008F2201215200A25C501C8140294892000E
:102F700041652949601C8C46002162445160E1543E
:102F80000433E358FF30196084235B00E358196071
:102F90002FF07AF9C6E6E023E25C002A00D1BBE616
:102FA000FE220121A25C501C81401A48920041651A
:102FB000194920008C46002162445160E1540433D9
:102FC000E358E0301960E823E35819602FF05CF90A
:102FD000A2E6C023E25C002A00D198E6DE220121AD
:102FE000A25C501C81400B48920041650A492000B8
:102FF0008C46002162445160E1540433E358C030F0
:103000001960C823E35819602FF03EF97FE6C046E7
:10301000C46B00200030115000001150A023E25C6E
:10302000002A00D16EE6BE220121A25C501C814024
:10303000424892004165424920008C46002162448A
:103040005160E1540433E358A0301960A823E358D9
:1030500019602FF019F955E68023E25C002A00D1AF
:103060004BE69E220121A25C501C81403348920015
:103070004165334920008C46002162445160E1548F
:103080000433E358803019608823E35819602FF027
:10309000FBF832E66023E25C002A00D128E67E22BB
:1030A0000121A25C501C81402448920041652449C2
:1030B00020008C46002162445160E154636E603010
:1030C0001960A36E19602FF0DFF811E64023E25C6F
:1030D000002A00D107E65E220121A25C501C81403B
:1030E000164892004165164920008C460021624432
:1030F0005160E154636C40301960A36C19602FF08B
:10310000C3F8F0E52023E25C002A00D1E6E53E2288
:103110000121A25C561CB140084E9200716508491D
:103120008C4662445060E054636A1860A36A186079
:10313000200020302FF0A8F8D0E5C0460030115014
:103140000000115010B5002803D10121053000F016
:1031500075FE10BDF0B545464E46DE465746E0B515
:1031600088460600150085B0002800D0D5E0D37849
:103170009B079A0F92461100002B69D02022854BA5
:103180009A5C002A00D1E5E040229A5C002A00D136
:10319000E2E060229A5C002A00D1DFE080229A5CA3
:1031A000002A00D1DCE0A0229A5C002A00D1D9E0FC
:1031B000C0229A5C002A00D1D6E0E0229A5C002A64
:1031C00000D1D3E0802252009A5C002A00D1CFE0E7
:1031D000902252009A5C002A00D1CBE0A02252003B
:1031E0009A5C002A00D1C7E0B02252009A5C002A03
:1031F00000D1C3E0C02252009A5C002A00D1BFE097
:10320000D02252009A5C002A00D19CE0E0225200B9
:103210009A5C002A00D1B5E0F02464001A5D002A0F
:1032200000D1B1E0FF2252009A5C5B48D7001C1924
:103230003818A0605948920184465948674484462A
:1032400058486244504081466760E26001970BE055
:10325000504B554A1C009A60544A554FDA60C022C0
:10326000520091465F600197AA7828799446674694
:103270006A798906120202435205520DA8799346D3
:1032800065467F22A77047462A40677757425741D5
:10329000E7705F4627835746E7764F463943A027B6
:1032A000ED093F0665703943002802D0013800045B
:1032B000014301980160012121709C4223D04346C3
:1032C00017041F43002D02D180239B041F43394B59
:1032D0001B6D9B059B0F012B1DD0022B57D1404628
:1032E0000DF0F6F8B04202D08023DB041F433149D1
:1032F000A37F8C469A0062445760012201339A40B2
:1033000013002D4A5365012005B0F0BCBB46B24600
:10331000A946A046F0BD0126E1E7404603A90DF00D
:103320005DFA02AB5A790023002A05D002ABDB79A3
:10333000013B5A425341DBB2013E2A004146F0B202
:1033400005F030FCE0E70D24621E6401D2B21819CA
:1033500082776AE70124F7E70224F5E70324F3E71D
:103360000424F1E70524EFE70624EDE70724EBE763
:103370000824E9E70924E7E70A24E5E70B24E3E763
:103380000C24E1E70E24DFE7D23CFF3CDCE70B48EE
:1033900002F01CFEC46B0020880010500800105082
:1033A000000210500000105080001050800110509A
:1033B000000110500000115000201150E4240310AF
:1033C000F0B54F464646D646C0B582B098460AABE1
:1033D0000D001F88002800D0FCE07F231900114059
:1033E0008946D1098A46C14C134200D1A3E05F3B14
:1033F000E35C002B04D03D23E35CAB4200D12AE127
:103400004023E35C002B04D05D23E35CAB4200D19E
:1034100028E16023E35C002B04D07D23E35CAB4216
:1034200000D1DEE08023E35C002B04D09D23E35C2D
:10343000AB4200D11DE1A023E35C002B04D0BD23EF
:10344000E35CAB4200D11BE1C023E35C002B67D1FE
:10345000E023E35C002B04D0FD23E35CAB4200D10E
:1034600015E180235B00E35C002B05D01E23FF33B6
:10347000E35CAB4200D111E190235B00E35C002BE5
:1034800005D03E23FF33E35CAB4200D10EE1A02325
:103490005B00E35C002B05D05E23FF33E35CAB42B3
:1034A00000D10BE1B0235B00E35C002B05D07E2351
:1034B000FF33E35CAB4200D108E1C0235B00E35C77
:1034C000002B05D09E23FF33E35CAB4200D105E126
:1034D000D0235B00E35C002B05D0BE23FF33E35C0D
:1034E000AB4200D10CE1E0235B00E35C002B05D094
:1034F000DE23FF33E35CAB4200D109E1F0235B0044
:10350000E05C002806D0FE23FF33E35C0020AB42E2
:1035100000D105E102B0E0BCBA46B146A846F0BD14
:10352000DD23E35CAB4293D1C223E35C934200D042
:103530008EE706235BE0A378260093425ED05346D5
:10354000B2704A46737053425341F268F370684B4D
:10355000F17E5340A022890612060B431343726882
:103560007577136001233370A64247D04B461B0486
:103570002B4399465346002B04D180234A469B0493
:103580001A4391465B4B1C6DA405A40F012C03D07C
:10359000022C00D0CCE0002428000CF099FFA042BF
:1035A00004D080234A46DB041A4391465149B37F35
:1035B0008C4649469A0062445160012201339A4088
:1035C00013004D4A536530003A0041460BF05AFA59
:1035D00001209FE7013843460097C0B205F040FB49
:1035E00098E76223E35C934200D01BE703235B016F
:1035F000E618B1789142A2D1002BE4D13A00200024
:1036000041460BF03FFA4B463A4A1B042B431360EA
:1036100056463A4B03249C46136D013EA6431B0AB3
:1036200066441C40012C03D0022C00D080E0002412
:1036300028000CF04DFF031B5A1E93419B0133439E
:103640000122190091432B4AD1640C210339FDD288
:103650000120D3645EE72223E35C934200D0CFE6EF
:103660000123C4E74223E35C934200D0D1E6022366
:10367000BDE78223E35C934200D0DCE60423B6E797
:10368000A223E35C934200D0DEE60523AFE7E2230A
:10369000E35C934200D0E4E60723A8E781235B00C4
:1036A000E35C934200D0E7E60823A0E791235B00A8
:1036B000E35C934200D0EAE6092398E7A1235B008C
:1036C000E35C934200D0EDE60A2390E7B1235B0070
:1036D000E35C934200D0F0E60B2388E7C1235B0054
:1036E000E35C934200D0F3E60C2380E7C46B002038
:1036F00000001050000011500020115009860020D9
:10370000D1235B00E35C934200D0ECE60D236EE72F
:10371000E1235B00E35C934200D0EFE60E2366E713
:10372000F1235B00E35C934200D0F3E60F235EE7F6
:10373000014802F04BFCC046E424031010B5041EFF
:1037400045D11078264B1870507858709078987042
:10375000D078D87010791871507958719079987123
:10376000D2792048DA71204B204AD860802040006E
:1037700058809A601E481F4A5C705A605977DC7600
:103780001060012208201A7098829A761A4B1960EC
:103790001B6D9B059B0F012B10D0022B1CD1080029
:1037A0000CF096FEA0420FD0144A1549124BDA6471
:1037B0000C22033AFDD20120D96410BD0800012477
:1037C0000CF086FEA042EFD10E4A0F49EEE7013C15
:1037D000E0B205F015FAF0E70C4802F0F7FBC0463E
:1037E0000000105080011050C46B00208000105069
:1037F000800100A0000110500000115042860020FE
:10380000438600200286002003860020E424031063
:10381000F0B583B005000E00140000F039FA00285E
:1038200001D003B0F0BD154F01223B0001210097EC
:10383000053002F083F833002A000094012110487B
:1038400002F070FA21002800714304F00DF8040022
:103850000C4B002200930221042002F06FF8230099
:10386000002201210094052002F068F83B000222AA
:1038700000210097062002F061F8D2E7006CDC021C
:1038800000800240001BB700F0B54E464546DE46BC
:103890005746E0B51E00844B05009846A0235B0008
:1038A0009B46824BD9469A4643468B4685B0009349
:1038B00002920396009B53450DD901235B429C461F
:1038C0007B4AE1449446009B634400934B460F2B94
:1038D000F0D100208FE01F00764B31219C466744D9
:1038E000380003F0C1FF07263124854264D0741EDE
:1038F000B0462E00250044466C433800210003F0FA
:10390000B3FF86424CD06B1E0193012D00D1B2E073
:103910004346E41A2100380003F0A6FF864259D03E
:10392000AB1E0193022D00D1B1E04346E41A210001
:10393000380003F099FF864264D0EB1E0193032DFB
:1039400066D04346E41A2100380003F08DFF86421A
:1039500069D02B1F0193042D6BD04346E41A21003C
:10396000380003F081FF86426BD0052D6DD0380002
:10397000E11F03F079FF864200D171E00623242184
:1039800038009846242403F06FFF864212D00525A4
:1039900044466C433800210003F066FF8642B2D1F2
:1039A0000029B0D15B462C00CB4647469946029A87
:1039B000039E18E0350046462100380003F054FF0E
:1039C000002994D137005B463C00CB46029A9946C9
:1039D000039E08E00029A3D15B464746CB469946A3
:1039E000029A039E019C5B463349012059434B4692
:1039F00019601760346005B0F0BCBB46B246A946FA
:103A0000A046F0BD0029E7D0EB1E0193032D98D10D
:103A10000323092138009846092403F025FF864234
:103A2000C8D0022567E70029D6D02B1F0193042DAB
:103A300093D10423102498463B099E42BAD0032513
:103A400059E70029C8D0052D91D119213800192432
:103A500003F00AFFB04223D00523042598464AE725
:103A6000002900D08AE75B464746CB4601249946A9
:103A7000029A039EB7E73500B74200D01DE75B46C8
:103A80000127CB4601249946029A039EABE7022305
:103A900004249846BB089E4200D18BE701252AE703
:103AA0003500052688E7C04650262F0050F80C0048
:103AB00020D1FFFFB0710B00001BB700094A10B501
:103AC00094464024830063441A68C00062408034F6
:103AD00014408022520113431C60034B9C466044F7
:103AE000416010BD04C0014000400140074B800010
:103AF0009C4660440368C90092000A435A400C2364
:103B00001A4080235B0103431A60704704C00140E0
:103B1000074BC0009C466044036809045940C02319
:103B20009B02194080235B01034319607047C04624
:103B300004400140084B80009C466044002905D0A9
:103B4000802302229B0103431A607047C023022294
:103B50009B0103431A60F8E704C00140064B800054
:103B60009C46604403684B400121194080235B015F
:103B7000034319607047C04604C00140064B8000F3
:103B80009C466044036809015940802330225B0150
:103B90000A4003431A60704704C00140D0231B064B
:103BA0001B6830B50500584243412F205B428343D8
:103BB0000D48EC0884460720284080008140200002
:103BC0000A4D3C3063448000A40041511B19002A77
:103BD00004D0802292011343196030BDC0229201AB
:103BE00013431960F9E7C0463041014000400140ED
:103BF000D023F0B5C6461B0698461B680C4F9B00A9
:103C00001600FA5804000D0000B5104209D1290031
:103C100014430D203200FC5000F068F980BCB84617
:103C2000F0BD02F0EBF943461B689B00FA58EEE743
:103C3000C4AF002010B504000D2000F051FAD023CD
:103C40001B061B6802499B005A58A2435A5010BDDC
:103C5000C4AF00200123D0228340120693629361F7
:103C6000094A40219446830063441A68C0004A40D0
:103C7000803111408022520113431960034B9C464E
:103C8000052360444360704704C001400040014088
:103C9000024B18688007C00F7047C04600C006403E
:103CA000EFF3108072B6034A1368002BFCD0BFF309
:103CB0005F8F70472C0100D0BFF35F8F0022024B53
:103CC0001A6080F3108870472C0100D070B5EFF3B4
:103CD000108C72B60D4D2B68002BFCD0BFF35F8F9C
:103CE0000724CB08C618C05C01230C40A3401C006D
:103CF0000440034207D118433070BFF35F8F2C603C
:103D00008CF3108870BD100002F060F92C0100D017
:103D1000F8B54746CE46884680B5EFF3108C72B6AC
:103D2000214D2C68002CFCD0BFF35F8F9A422CD819
:103D3000D4080727055D061901241740BC402C4212
:103D40001FD007210127894609E0D408055D06191F
:103D50004C4639001440A1400C00294211D00132D8
:103D60009342F2D201204042BFF35F8F00220E4BFC
:103D70001A608CF3108800280FDBC0BCB946B0462F
:103D8000F8BD254310003570EEE7BFF35F8F0023C9
:103D90002B608CF31088012040424346002BECD06E
:103DA000089802F013F9C0462C0100D030B5EFF3AB
:103DB000108C72B60A4C2368002BFCD0BFF35F8FC7
:103DC000072301220B409A40CD08435D934343559E
:103DD000BFF35F8F002323608CF3108830BDC04693
:103DE0002C0100D00021044B044ABFF35F8F02C3B3
:103DF0009342FAD17047C046000100D0800100D044
:103E0000044A1078431CDBB2172B00D9102313701F
:103E10007047C046B031002010B5064B064C82B04A
:103E20000100009318221F232000FFF771FF02B04A
:103E300010BDC046F42403103862002001238340E3
:103E4000002904D0034A1360034A13607047034AF1
:103E50001360FBE780E200E000E100E080E100E0C9
:103E600001228240034B1B6813405A1E9341D8B273
:103E70007047C04600E100E001238340014A13601F
:103E80007047C04600E200E0024B10309B688000A3
:103E9000C058704700ED00E070B50D00EFF31086DC
:103EA00072B60F4A1368002BFCD0BFF35F8F0D4B27
:103EB00010309B6884001B590B4A934203D09D42EB
:103EC00001D002F09BF8074B9B681D51BFF35F8F39
:103ED000BFF35F8F0022024B1A6086F3108870BD1B
:103EE000240100D000ED00E0CD010010F0B55746F0
:103EF0004E46DE464546E0B585B006000091170007
:103F0000EFF3108B72B66A4A1368002BFCD0BFF334
:103F10005F8F0025674B5D579A46002D00DAA9E0B8
:103F20006B00654C01935B199B009846A146C14408
:103F30004B4652469B7910361370604BB6009B6817
:103F400099590B1B2F2B33D95D4B994200D0ACE014
:103F5000019B42469C465B4B6544AD0063535A4B04
:103F60000232A218043B9B1A1B05584A5B0D6519C7
:103F700013436B80564B0121AB80FF23AB71009B39
:103F8000EF71AB604B460B4319004C4B9B6899514A
:103F9000BFF35F8FBFF35F8F0022454B1A608BF337
:103FA000108805B0F0BCBB46B246A946A046F0BD9D
:103FB00001200A008243D3798C46BB4231D8454662
:103FC000130044491B1B5B415943090D3D4B63538F
:103FD0003D4B02356519043B5B1B1B053B4D5B0DDF
:103FE0002B43AA464D466B800425AC465546E0441B
:103FF000131F44441B1B1B055B0D1D434B4699714E
:1040000000999D8099604946DF71334B01431360ED
:10401000BBE75800C01880002018C179B9422FD9D9
:1040200002000623D356002BF3DA02932B4B614692
:104030000393131D9A4604235B429C46E144504679
:104040004B461B1A1B055B0D9C46204B95719846F1
:104050006346404603439380019B5A199200039B99
:10406000A418A380029B1C4AA371009B2260E771E5
:10407000A3608AE701F0C2FF002553465D574FE772
:10408000908802934005131D9A46031561469C468D
:104090004046D444634604302018181AE023000533
:1040A000400D1B0218430390C5E701F0A7FF4FE73F
:1040B000240100D078CF0020B431002000ED00E0D2
:1040C000CD01001000A1FFFFE431002000E0FFFF60
:1040D00001BDFFFFAAAA00000148804701BD000002
:1040E000F0B5DE4657464E464546E0B50C0083B077
:1040F000EFF3108872B65D4A1368002BFCD0BFF353
:104100005F8F5B4B5B499A68030010339F00D55962
:104110008D4239D0A5424AD0574EAA1B2F2A33D8F8
:1041200001229246824091464846544A1268104005
:1041300001904846524A1060BFF35F8FEFF305824B
:104140009346002A35D0934201D001F057FF2A0050
:1041500053469A439068844208D175E04B005B183F
:104160009B00F3189868A04234D01A0006215156DB
:104170000029F3DA844253D0019B002B26D04A4613
:10418000404B1A603D4B1A60394B9B68DD51BFF3C1
:104190005F8FBFF35F8F0022344B1A6088F3108863
:1041A00003B0F0BCBB46B246A946A046F0BD0D0028
:1041B000EAE72A0053469A4390688442D6D1062003
:1041C00010561300002809DA0D0031E04A462C4B46
:1041D0001A60D9E706201856002822DB4200111881
:1041E000890074188A46A1689960E179D97106211D
:1041F00061569971002925DBA488F11A64052415FC
:1042000054440919E0240905490D240221439980E9
:1042100013181D4A9B001178F31899711070ABE7C1
:1042200013005946002914D1FF319171174991802B
:1042300015490A789A71164A9B1B5B415A43120D25
:104240000A7099E71349E2E7062010561300002888
:10425000C4DA114A1149D21A083A5002400D0143FA
:1042600099800F4952080A43DA8085E7240100D07B
:1042700000ED00E0CD010010B431002000E100E0CD
:1042800080E100E080E200E078CF002001BDFFFF88
:10429000AAAA000001BD0000EE31002000F0FFFFDF
:1042A00000F8FFFF032310B50400074A18409446A6
:1042B000C0009C43FC3383406444226881409A439D
:1042C00013000B43236010BD00E400E070B5EFF372
:1042D000058101240443EFF3108C72B6214A136860
:1042E000002BFCD0BFF35F8F1F4B05001F4AED1A58
:1042F0006D416A43120D1E4D8900AE6852B2765868
:10430000A6421CD00621595691421CD01221595662
:10431000914222D01E215956914220D02A2159562D
:104320000324914210D0134B19781A708171BFF396
:104330005F8F00220B4B1A608CF3108870BDAB6846
:104340000D4C5C50EFE700246100091989005B18EF
:10435000FF21997109499980E5E70124F4E70224D6
:10436000F2E7C046240100D0B4310020AAAA000020
:1043700000ED00E078CF0020CD01001001BDFFFF6F
:10438000054B064A1360064A136053609360D3607E
:1043900013615361936170478080808000E400E086
:1043A00004E400E01F2110B5091A0248FFF7FEFCE3
:1043B00010BDC0468ACF002010B5084B084C82B013
:1043C00001000093002205232000FFF7A1FC002834
:1043D00001DB1F23181A02B010BDC04610250310C0
:1043E0008ACF002070B504000E001500FFF708FD0D
:1043F0000100200000F006F8A680E580BFF35F8F83
:1044000070BDC046024B9C46614489000160704704
:104410004000003410B50400FFF7F2FC010020005A
:10442000FFF7F0FFFF232371BFF35F8F10BDC0467E
:1044300010B50400FFF7E4FC01002000FFF7E2FFE5
:10444000FF23A380BFF35F8F10BDC04610B50400EB
:104450000120FFF7E1FC034BC3189B002360BFF36F
:104460005F8F10BD4000003483680B4810B5844650
:10447000614462441201090159189B185C684A683A
:104480000120944201D802D00020C0B210BD1A68A9
:104490000B689A42F9D8F7E7FFFFFF0F10B5080045
:1044A0000B690C009847002802D02068616810BD95
:1044B000E06000210020FAE70A4B1968EFF3108052
:1044C00072B60A68002AFCD0BFF35F8F1B68BFF387
:1044D0005F8F00221A6080F3108840BF0020002107
:1044E0007047C0469CC50020F8B5574645464E4625
:1044F000DE46E0B598460CAB1C780DAB1B78070088
:1045000091469A460568002C59D1AC7B002C3BD0D3
:10451000660029683619033E89194B78AB73002B66
:1045200000D1EB7300238B704B700B702D4BE21896
:10453000BB6812019B184A461A6042465A600A9AA2
:104540009A600B9ADA6000238B704B700B706B7B58
:104550009B46002B26D022006B685946A8689847D6
:104560005B465B005B442A68033B002812D0584638
:104570009619B070D118D35C002B00D073705B46D5
:104580000C706B735C450ED0F0BCBB46B246A946BE
:10459000A046F8BDD3189C709119925D002A1CD1D9
:1045A0005B460B706C734A464346387D00F054FE00
:1045B000051E0AD10E9B002BE6D01D70E4E76600B5
:1045C00029683619033E8919B0E75346002BF1D10B
:1045D0002100386801F0B0F8ECE75A705B460B70C8
:1045E0006C73E0E7FFFFFF0FF0B5DE4657464E461F
:1045F00045460023E0B58BB00893684B8200D45841
:1046000000239B46099000F093FD02000B006068B8
:10461000EFF3108A72B6564601680029FCD0B24604
:10462000BFF35F8F21684F7B8C46002F2ED0A5688B
:104630005B49A946791809018944494608684968CF
:1046400005000E00AD1A9E41002E5FDD02000B003A
:10465000099800F001FE00230022994600230692EB
:104660000793002398466368BFF35F8F5A461A602A
:104670008AF310884346002B12D10028C3D10BB017
:10468000F0BCBB46B246A946A046F0BD00230022BE
:104690009946002306920793002300209846E2E7FC
:1046A000089B494618023843C047626805000E005F
:1046B000EFF3108A72B61368002BFCD0BFF35F8F44
:1046C000002E41DB2B00334302D02369002B56D14F
:1046D0002368D97B002905D01A6848004118521870
:1046E000033A57709A7B002A00D19F73DF73E26808
:1046F000013FD35D0133D3555B4623616368BFF34C
:104700005F8F5A461A608AF310887CE7002E02D128
:10471000002D00D09AE70021604600F08BFF4B4649
:104720001A685B68069207934B469B6898464B460F
:10473000DB689946E368DB19013B1B7808931B0291
:104740000343236100208EE72369002BC0D0069A23
:10475000079B8021521BB34109068B4202D30122E1
:10476000104B5242002104910131039149460191BD
:104770004146200002970091FFF7B6FEBCE700F02B
:10478000D7FC2A00330012184B41802109068B42C6
:10479000E8D30122034B5242E4E7C046ACAF00200D
:1047A000FFFFFF0FFFFFFF7F10B5144C6368002B66
:1047B00004D00A211248FFF725FE10BD2300114A3C
:1047C0001021206800F048FE032000F089FC03203F
:1047D00000F0AAFD03200C4900F0F8FCFFF710FBE5
:1047E0000A4B9C4603232375D0231B061B68604499
:1047F0006375074B80006060DC60DAE7FC31002005
:104800009CC5002069440010E945001040000034B8
:10481000ACAF002000487047FC31002070B50500A7
:1048200018200E0003F0D0FC1549040002003000EF
:1048300000F0E2FD10212060300003F0E3FC0121D4
:10484000A060300003F0DEFCE060280000F048FCCF
:10485000280000F069FD28000A4900F0B7FCFFF7C6
:10486000CFFA094B25759C46D0231B061B68604474
:104870006375064BAD0080006060EC50200070BD99
:1048800069440010E945001040000034ACAF00203E
:1048900070B50500182003F097FC164904000200CB
:1048A000280000F0A9FD10212060280003F0AAFCD8
:1048B0000121A060280003F0A5FCE060012000F0C9
:1048C00025FC050000F030FD28000B4900F07EFCBF
:1048D000FFF796FA094B25759C46D0231B061B68EB
:1048E00060446375064BAD0080006060EC502000B2
:1048F00070BDC04669440010E94500104000003416
:10490000ACAF00200E4B10B50400984217D0002128
:10491000027D0C4B92000068D15000F0BBFD0021DD
:10492000207D00F053FC207D00F0E6FBE06803F002
:1049300089FCA06803F086FC200003F083FC10BD16
:10494000FC310020ACAF0020F0B557464E4645463E
:10495000DE46E0B585B0019310AB1B7806000393EB
:1049600000239A46984600927268EFF3108B72B655
:104970001368002BFCD0BFF35F8F3568AC7B002C35
:1049800000D16EE067002B683F19033FDB195A78AE
:10499000AA73002A00D1EA73484AA118B268090133
:1049A000521800980199106051600E9991600F990A
:1049B000D16042469A705A701A706B7B9946002BF0
:1049C00000D16BE022006B684946A86898474B46C7
:1049D0005B004B442A68033B002856D04846D71951
:1049E000B870D118D35C002B00D07B704B460C7094
:1049F0006B734C4553D0F3681B19013B18787368EF
:104A0000BFF35F8F42461A608BF310885346002B2A
:104A100008D10002204305B0F0BCBB46B246A9460F
:104A2000A046F0BD039B002B46D00E9B00200F99A3
:104A3000984703000B433FD004000D1E1ADA009A7A
:104A4000019B121BAB4100920193802212069342FC
:104A500004D301231A4C5B4200930194039B9A46B2
:104A600082E77368BFF35F8F1C608BF310880120AF
:104A70004042D0E700F05CFB802200196941120639
:104A8000009001919142E9D3E3E7D3189C70D119CA
:104A9000D25D002A00D05A704B460B706C73307D8B
:104AA000009A019B00F0D8FB82460028A3D0210089
:104AB000306800F041FE9EE70020ACE7FFFFFF0FEB
:104AC000FFFFFF7FF8B557464E46DE464546924605
:104AD000E0B5040099464268EFF3108772B6136898
:104AE000002BFCD0BFF35F8F2668B57B002D3DD037
:104AF0006B005B19033B9846316841444B78B373B4
:104B0000002B00D1F373334BEA18A36812019B18F2
:104B100052461A604A465A600A9A9A600B9ADA60BC
:104B200000238B704B700B70737B9B46002B36D031
:104B30002A0073685946B06898475B465B005B443F
:104B40003268033B00281FD0D11840468C46594696
:104B500010188170D35C002B00D0437063461D7029
:104B60005B46002073735D451FD119E06368BFF396
:104B70005F8F1D6087F3108801204042F0BCBB4668
:104B8000B246A946A046F8BD41464046D3189D709E
:104B90005118125C002A00D05A705B460B70757376
:104BA00052464B46207D00F057FBE3685B19013B02
:104BB0001E786368BFF35F8F00221A6087F3108846
:104BC000002802D130022843D8E7207D00F0CAFB3C
:104BD000F8E7C046FFFFFF0FF8B5040000292FD00B
:104BE0004268EFF3108572B61368002BFCD0BFF358
:104BF0005F8FFF222068CFB2437B0A40BB4213D0B5
:104C000003685600B6189B19033B9B78002B0BD109
:104C10002269914216D000206368BFF35F8F0022A3
:104C20001A6085F310880CE0E6680B0AB218013AA6
:104C30001278DBB29A42EED1390000F07DFDEBE74D
:104C40000020F8BD2361E6E7407D7047F0B5574688
:104C50004E46DE4645461100E0B585B006009C464E
:104C6000109F194300D1E9E06146DB1701930093DF
:104C700053401C00019B4B401D0000980199241AD1
:104C80008D4163460E997B600F9BBE607B613961ED
:104C90003A6000F04DFA8023001969411B0600902C
:104CA0000191994204D30123694C5B420093019422
:104CB00000239846674B1097039300239946109B57
:104CC0003700464698467A68EFF3108B72B6136841
:104CD000002BFCD0BFF35F8F3D68AC7B002C00D174
:104CE00079E063001B19033B1A00944602932B687A
:104CF00063445A78AA73002A00D1EA73564AA1186D
:104D0000BA6809015218009801991060516003991E
:104D100091604146D1604A469A705A701A706B7B16
:104D20009A46002B00D17BE022006B685146A868B0
:104D3000984753465B0053442A68033B002800D140
:104D400064E0D1188C465146029810188170D35CEB
:104D5000002B00D0437063461C7053466B733500C4
:104D600054455ED0FB687A681B19013B1B78BFF382
:104D70005F8F494611608BF31088002D0CD1474698
:104D80001B02234301352800FB6005B0F0BCBB4685
:104D9000B246A946A046F0BD434640461B69984727
:104DA000061E24D043460CCB100018434CD01400F0
:104DB0001D1E1FDA009A019B121BAB41009201934A
:104DC00080221206934200D27DE70123204C5B42F1
:104DD0000093019477E73E0047467368BFF35F8F07
:104DE0001C608BF31088012300255B42CBE747460C
:104DF0000023C8E700F09CF98022001969411206DF
:104E000000900191914200D25DE7DEE70298D3184D
:104E10009C701118125C002A00D05A7053460B7017
:104E20006C73387D009A019B00F016FA051E00D1C4
:104E300098E72100386800F07FFC93E70023012405
:104E4000002501229C461CE74746350000239AE7CF
:104E5000FFFFFF7F9D440010FFFFFF0FF0B5040030
:104E60000D0006267642F717C64636196F4100B583
:104E700084B08F4214D811D000F05AF932003B00B0
:104E8000121A8B41002B15DC002B3ED0200029008C
:104E900000F08CF904B080BCB846F0BD8642EBD976
:104EA0000026002700F044F932003B00121A8B4123
:104EB000002BE9DD002302930193154B3200009390
:104EC00014483B00FFF740FD0028DFDB0023984635
:104ED000BC46114A114F7B6A9C4504D8B96A8E4280
:104EE000D4D99C45D2D11168EFF3108072B60B680B
:104EF000002BFCD0BFF35F8F1368BFF35F8F414679
:104F0000196080F3108820BFE5E7002ABED0D1E702
:104F1000B9440010FC3100209CC500200040054031
:104F200070B5060000F004F9FA2204000D00002319
:104F300030000021920003F073F8802300196941CA
:104F40001B06994202D3012002494042FFF786FF27
:104F500070BDC046FFFFFF7FF0B5EFF30583CE467F
:104F6000474680B505000C0085B0002B12D02A4AB8
:104F70000020536AA34203D3926A0130AA4204D3A9
:104F800005B0C0BCB946B046F0BD1B1B5A1E9341CC
:104F9000D8B2F5E7214E02930193214B0200009312
:104FA00030000B00FFF7D0FC031EE0DD20BF71686E
:104FB000EFF3108772B60A68002AFCD0BFF35F8F48
:104FC000DAB29446FF2230681A40417B61450FD027
:104FD0000168894651008846494690444144033956
:104FE0008978002904D13269934209D1316107E0FF
:104FF000F1681B0A8A18013A1278DBB29A4207D08C
:105000007368BFF35F8F00221A6087F31088AEE7E2
:10501000614600F091FBF3E700400540FC310020C1
:10502000B9440010F0B5EFF30582D6464F46464628
:105030001000C0B51038EFF3108872B6214C236809
:10504000002BFCD0BFF35F8F0123190081401E4D60
:105050001F006963AA461D4D29601D4D2E78AC4680
:105060003500C5402F402B4215D053465F6A194B7F
:105070008500EB589F4218D36246174B8E43EB587E
:105080001670BFF35F8F0022226088F31088002B18
:1050900006D0984704E0BFF35F8F276088F310883D
:1050A000E0BCBA46B146A846F0BD0C4B92009C4607
:1050B000624413681360BFF35F8F0023236088F39B
:1050C0001088EDE7280100D0004005403C70054005
:1050D00089CF0020B4C50020AC570020D03F054048
:1050E00010B5034B01001800024AFEF7EFFD10BD9A
:1050F0006CCF00202C25031010B5034B01001800C5
:10510000FEF754FE10BDC0466CCF002010B5064B14
:10511000064C82B001000093002203232000FEF71A
:10512000F7FD02B010BDC046502503106CCF002023
:10513000034B596A0A00986A596A8A42FAD1704741
:105140000040054070B504000D00174A536A19006D
:10515000966A536A8B42FAD13000190024184D41E7
:10516000AB4216D813D0104B2A005B6A9D4203D97C
:105170000D494B6A9342FCD3934207D10A4A02E09D
:10518000516A994202D1916AA142F9D370BDA642F7
:10519000E9D9054B5B6A1C005A1CEFD0012201249F
:1051A0006442E5175242E3E700400540064A536A6D
:1051B0009942FCD807D1044B02E05A6A914202D1CD
:1051C0009A6A8242F9D370470040054070B50400E6
:1051D0000D00EFF3108672B61A4A1368002BFCD04C
:1051E000BFF35F8F002D1BD02000FEF74DFE164948
:1051F00081420AD02000FEF74FFE01212000FEF779
:105200001DFE0123A340114A1360114BA400E55079
:10521000BFF35F8F00220B4B1A6086F3108870BDBE
:105220000121A1400A4BA200D5500A4B20001A7858
:105230008A4305491A70FEF753FF00212000FEF74C
:10524000FDFDE5E7280100D025500010386005403D
:10525000AC57002089CF0020F0B54F46D6464646D1
:10526000C0B507002B4C616A0D00A66A616AA942AD
:10527000FAD18B4208D805D00120E0BCBA46B1462D
:10528000A846F0BDB242F7D9EFF3108A72B62248B1
:1052900001680029FCD0BFF35F8F0125BD401F4985
:1052A0001C4C8846097889462943C9B28C46414638
:1052B00060460870391D890065630A511849B800B5
:1052C0004350216A0020294219D0616A0800A66A69
:1052D000616A8142FAD18B4219D801D1B24216D803
:1052E000CC450BD00B4B1F221D625D6301233A405E
:1052F00093400C4A136043464A461A700120BFF39C
:105300005F8F0022044B1A608AF31088B5E70020F3
:10531000F5E7C04600400540280100D089CF0020B5
:10532000B4C5002080E200E0EFF3108C72B60A49A9
:105330000B68002BFCD0BFF35F8F01238340074A2B
:105340000748136202789A430270BFF35F8F00230D
:105350000B608CF310887047280100D00040054096
:1053600089CF0020EFF3108C72B60A490B68002B2E
:10537000FCD0BFF35F8F01238340074802781A43B4
:105380000270BFF35F8F00220A608CF31088034A1B
:1053900013607047280100D089CF00203C60054091
:1053A00070B506000D00140000291DD0002A12D08F
:1053B00073688068984762006B0012195B19316846
:1053C000033A033B002808D08A189570C818CB5CB4
:1053D000002B0BD10470280070BDCB189C7088186E
:1053E0008A5C002A05D105702000F5E7537004702F
:1053F000F1E75A700570F7E7F0B5CE460700894629
:1054000000B510210120160002F0FCFE032105006A
:10541000380002F0F7FE4B466B600023FCB26B7362
:10542000013328602C73AE60AB73EC73012C06D98A
:10543000421C0133DBB2137003329C42F9D1FF23CB
:105440003B405A00D318C6180023033E280073704F
:1054500080BCB946F0BDC04610B583600023CCB215
:1054600043730133426004738373C4730068421C46
:10547000012C05D90133DBB2137003329C42F9D100
:10548000FF230B405A00D318C01800230338437081
:1054900010BDC04610B50400006802F0D3FE200025
:1054A00002F0D0FE10BDC04670B505000C1E07D03E
:1054B000630001681B19033BCB185A78002A01D1FD
:1054C000200070BD500080180338091800204E7865
:1054D0004870210058702800FFF762FF3100040077
:1054E0002800FFF7E1FF0600002C20D00028E7D0BD
:1054F000320021006B68A868984772006300921917
:105500001B192968033A033B002808D08A189470B5
:10551000C818CB5C002B00D053700670D0E7CB18B6
:105520009E7088188A5C002A00D05A70047034007B
:10553000C6E7C046F0B557464546DE464E46E0B59E
:105540000D006F0001687F19033F0400C85D83B040
:105550000192CA19002850D043001B18033BCB18F6
:105560005E78B446002E1AD1019E002E42D0E67B12
:10557000002E04D073009B19CB18033B5D70A37BF6
:10558000002B00D1A573E57300282FD100235370A1
:1055900003B0F0BCBB46B246A946A046F0BD7200BF
:1055A0006244033A8A18517888460021517089462E
:1055B0005970320001002000FFF7F2FE4346824698
:1055C000002B07D05B0021684344033BCB185A787B
:1055D000002A16D1424651462000FFF7E1FE21681D
:1055E000019BCA19002BC2D10028CFD043001B1841
:1055F000033BCB1800219970C8E7019B002BB6D163
:10560000C4E7500080180338091848788346484694
:105610004870587041462000FFF7C2FE5946804648
:105620002000FFF741FF414602002000FFF7B8FECF
:105630008046CFE7F0B557464546DE464E46E0B5D4
:1056400083B00191457B04006F0000687F19033F20
:10565000C15DC219002952D04B005B18033BC3182F
:105660005E78B446002E1CD1019E002E44D0E67B0D
:10567000002E04D073009B19C318033B5D70A37BFD
:10568000002B00D1A573E573002931D10023280038
:105690005370617303B0F0BCBB46B246A946A04646
:1056A000F0BD72006244033A8218507880460020B0
:1056B00050708146587032002000FFF771FE43465B
:1056C0008246002B07D05B0021684344033BCB1884
:1056D0005A78002A17D1424651462000FFF760FE53
:1056E000019B01002068C219002BC0D10029CDD038
:1056F0004B005B18033BC31800209870C6E7019B62
:10570000002BB4D1C2E7500080180338091848783C
:10571000834648464870587041462000FFF740FED7
:10572000594680462000FFF7BFFE41460200200098
:10573000FFF736FE8046CEE770B5050000292CD075
:10574000437B8B422ED04C0000686418033C041944
:10575000A278002A21D053009B18033BC25CC618D4
:105760008A4202D11BE0002A08D053009B18033B59
:10577000C3185A788A42F6D162785A7000230122FF
:105780002800A3706370FFF7D5FE697B0200280034
:10579000FFF706FE6873012000E0002070BD63780B
:1057A0003370EBE701221900FFF7C4FEF2E7C046B1
:1057B000F8B5CE464746040080B506200D0000F03F
:1057C000ABFA061E53D0534B5349E3185A1E93416C
:1057D0008022120494465B429B0D504A9B05634411
:1057E00013604F4A136018008A689043FBD1494BFD
:1057F0004C4AE31859424B4180215B004900062086
:10580000995200F089FA2900C00002F02DF8C3096E
:1058100032D14022012190466162A362266BF307D8
:1058200036D427008025E36A00232C376D013D43E1
:105830002B600620266300F06FFA4146800002F0DC
:1058400013F8236B06009846DB073BD46023E26A1B
:105850005A400E3313402B604346236380231022AB
:105860009B013B431A60304B23630323A364300046
:10587000C0BCB946B046F8BD2C4A93423FD900237C
:105880002B492C4A6162A362266B9046F307C8D568
:105890002200C02330329B011343234A06201A60A2
:1058A000656AA36AAD01ED1800F036FA224901F0ED
:1058B000DBFFAD020100280001F0D6FF0021FFF759
:1058C00041FCAEE72200C02330329B011343164A4D
:1058D00006201A60636AA26A9B019946914400F00F
:1058E0001BFA4B4614499B02994601F0BDFF01008B
:1058F000484601F0B9FF0021FFF724FCA6E77F220C
:105900009901884602400132520819009044130060
:1059100082E7C0460080FCBF00C0004000E00040BD
:1059200000F0004020CC002001030000FEFF00003A
:10593000FFFF0000C0FF3F004E0E0000F0B54546DF
:105940004E46DE465746E0B583B016000C9A050079
:1059500088469A4200D975E01A0E93461B02180039
:105960000193594600230C9A01F0BCFF364B6C00A2
:105970009C466419A400644463680700834200D213
:1059800060602B1FDBB29946012B36D9C0238022E1
:105990009B01234312011A602C4BAD0059599A46C2
:1059A000002907D0586901F05FFF013043001B1840
:1059B000033BFDD2226873015340E0221A4080234A
:1059C0005B0123431A604A46012A2ED98023802294
:1059D0009B01234312011A60594600233A000198A3
:1059E000676001F07FFF53465851012003B0F0BCBF
:1059F000BB46B246A946A046F0BD4346012BC5D1E1
:105A0000C02303229B0123431A60023AA3681A426F
:105A1000FCD0226873015340E0221A4080235B01CE
:105A200023431A60094AAD0092464246216851401C
:105A300003220A401A60012243469A40A3681A4290
:105A4000FCD0C3E70020D1E70080004030390020BF
:105A500010B50C2082B000F0B7F9FEF719F9002854
:105A600010D08B4B8B488B498B4A186059609860DB
:105A7000D960186159619861D961186259625A6296
:105A800002B010BD854CA06700F0F4F90122844BF0
:105A90001A60636C012BFCD10322824B1A607F4A8F
:105AA000936B012BFCD1013301217F4A7F48009386
:105AB000043300F037F905237D4A009301217D4826
:105AC00000F030F97C4B5A68FF2A02D8802252003D
:105AD0005A608022734B6E4C12011A6021690029B2
